{
  "contractName": "TradingAgreement",
  "abi": [
    {
      "inputs": [
        {
          "internalType": "address",
          "name": "_senderAddress",
          "type": "address"
        },
        {
          "internalType": "uint256",
          "name": "_startTime",
          "type": "uint256"
        },
        {
          "internalType": "uint256",
          "name": "_endTime",
          "type": "uint256"
        }
      ],
      "stateMutability": "nonpayable",
      "type": "constructor"
    },
    {
      "inputs": [],
      "name": "ContractEndAgreement",
      "outputs": [
        {
          "internalType": "bool",
          "name": "",
          "type": "bool"
        }
      ],
      "stateMutability": "view",
      "type": "function",
      "constant": true
    },
    {
      "inputs": [],
      "name": "N",
      "outputs": [
        {
          "internalType": "uint256",
          "name": "",
          "type": "uint256"
        }
      ],
      "stateMutability": "view",
      "type": "function",
      "constant": true
    },
    {
      "inputs": [],
      "name": "N_max",
      "outputs": [
        {
          "internalType": "uint256",
          "name": "",
          "type": "uint256"
        }
      ],
      "stateMutability": "view",
      "type": "function",
      "constant": true
    },
    {
      "inputs": [],
      "name": "N_min",
      "outputs": [
        {
          "internalType": "uint256",
          "name": "",
          "type": "uint256"
        }
      ],
      "stateMutability": "view",
      "type": "function",
      "constant": true
    },
    {
      "inputs": [],
      "name": "OrderBookIncrementor",
      "outputs": [
        {
          "internalType": "uint256",
          "name": "",
          "type": "uint256"
        }
      ],
      "stateMutability": "view",
      "type": "function",
      "constant": true
    },
    {
      "inputs": [],
      "name": "T_Deployment",
      "outputs": [
        {
          "internalType": "uint256",
          "name": "",
          "type": "uint256"
        }
      ],
      "stateMutability": "view",
      "type": "function",
      "constant": true
    },
    {
      "inputs": [],
      "name": "T_agreement",
      "outputs": [
        {
          "internalType": "uint256",
          "name": "",
          "type": "uint256"
        }
      ],
      "stateMutability": "view",
      "type": "function",
      "constant": true
    },
    {
      "inputs": [],
      "name": "T_end",
      "outputs": [
        {
          "internalType": "uint256",
          "name": "",
          "type": "uint256"
        }
      ],
      "stateMutability": "view",
      "type": "function",
      "constant": true
    },
    {
      "inputs": [],
      "name": "T_start",
      "outputs": [
        {
          "internalType": "uint256",
          "name": "",
          "type": "uint256"
        }
      ],
      "stateMutability": "view",
      "type": "function",
      "constant": true
    },
    {
      "inputs": [],
      "name": "consignmentETARange",
      "outputs": [
        {
          "internalType": "uint256",
          "name": "",
          "type": "uint256"
        }
      ],
      "stateMutability": "view",
      "type": "function",
      "constant": true
    },
    {
      "inputs": [],
      "name": "d",
      "outputs": [
        {
          "internalType": "uint256",
          "name": "",
          "type": "uint256"
        }
      ],
      "stateMutability": "view",
      "type": "function",
      "constant": true
    },
    {
      "inputs": [],
      "name": "f",
      "outputs": [
        {
          "internalType": "uint256",
          "name": "",
          "type": "uint256"
        }
      ],
      "stateMutability": "view",
      "type": "function",
      "constant": true
    },
    {
      "inputs": [],
      "name": "flagContinue",
      "outputs": [
        {
          "internalType": "bool",
          "name": "",
          "type": "bool"
        }
      ],
      "stateMutability": "view",
      "type": "function",
      "constant": true
    },
    {
      "inputs": [
        {
          "internalType": "uint256",
          "name": "",
          "type": "uint256"
        }
      ],
      "name": "multiSigBook",
      "outputs": [
        {
          "internalType": "uint256",
          "name": "courierNumber",
          "type": "uint256"
        },
        {
          "internalType": "bool",
          "name": "signatureSally",
          "type": "bool"
        },
        {
          "internalType": "bool",
          "name": "signatureRob",
          "type": "bool"
        }
      ],
      "stateMutability": "view",
      "type": "function",
      "constant": true
    },
    {
      "inputs": [
        {
          "internalType": "uint256",
          "name": "",
          "type": "uint256"
        }
      ],
      "name": "orderBookConsignment",
      "outputs": [
        {
          "internalType": "uint256",
          "name": "consignmentnumber",
          "type": "uint256"
        },
        {
          "internalType": "uint256",
          "name": "timeSlotOfOrder",
          "type": "uint256"
        },
        {
          "internalType": "uint256",
          "name": "timeOfOrder",
          "type": "uint256"
        },
        {
          "internalType": "address",
          "name": "consignmentSender",
          "type": "address"
        },
        {
          "internalType": "uint256",
          "name": "ETA",
          "type": "uint256"
        },
        {
          "internalType": "bool",
          "name": "DeliveryReviewed",
          "type": "bool"
        }
      ],
      "stateMutability": "view",
      "type": "function",
      "constant": true
    },
    {
      "inputs": [],
      "name": "orderPerSlot",
      "outputs": [
        {
          "internalType": "uint256",
          "name": "",
          "type": "uint256"
        }
      ],
      "stateMutability": "view",
      "type": "function",
      "constant": true
    },
    {
      "inputs": [],
      "name": "ownerCompanyName",
      "outputs": [
        {
          "internalType": "string",
          "name": "",
          "type": "string"
        }
      ],
      "stateMutability": "view",
      "type": "function",
      "constant": true
    },
    {
      "inputs": [],
      "name": "ownerReceiver",
      "outputs": [
        {
          "internalType": "address",
          "name": "",
          "type": "address"
        }
      ],
      "stateMutability": "view",
      "type": "function",
      "constant": true
    },
    {
      "inputs": [
        {
          "internalType": "uint256",
          "name": "",
          "type": "uint256"
        }
      ],
      "name": "receivingConsignmentBook",
      "outputs": [
        {
          "internalType": "uint256",
          "name": "consignmentnumber",
          "type": "uint256"
        },
        {
          "internalType": "uint256",
          "name": "consignmentOrderTime",
          "type": "uint256"
        },
        {
          "internalType": "uint256",
          "name": "consignmnetShippingTime",
          "type": "uint256"
        },
        {
          "internalType": "uint256",
          "name": "ETAasPerOrder",
          "type": "uint256"
        },
        {
          "internalType": "uint256",
          "name": "RobETA",
          "type": "uint256"
        },
        {
          "internalType": "uint256",
          "name": "SallyETA",
          "type": "uint256"
        },
        {
          "internalType": "address",
          "name": "consignmentSender",
          "type": "address"
        },
        {
          "internalType": "enum TradingAgreement.DeliveryStatus",
          "name": "DeliveryStatusOnDelivery",
          "type": "uint8"
        },
        {
          "internalType": "bool",
          "name": "flagDecision",
          "type": "bool"
        }
      ],
      "stateMutability": "view",
      "type": "function",
      "constant": true
    },
    {
      "inputs": [],
      "name": "s",
      "outputs": [
        {
          "internalType": "uint256",
          "name": "",
          "type": "uint256"
        }
      ],
      "stateMutability": "view",
      "type": "function",
      "constant": true
    },
    {
      "inputs": [],
      "name": "senderAddress",
      "outputs": [
        {
          "internalType": "address",
          "name": "",
          "type": "address"
        }
      ],
      "stateMutability": "view",
      "type": "function",
      "constant": true
    },
    {
      "inputs": [],
      "name": "senderAgreement",
      "outputs": [
        {
          "internalType": "bool",
          "name": "",
          "type": "bool"
        }
      ],
      "stateMutability": "view",
      "type": "function",
      "constant": true
    },
    {
      "inputs": [],
      "name": "senderCompanyName",
      "outputs": [
        {
          "internalType": "string",
          "name": "",
          "type": "string"
        }
      ],
      "stateMutability": "view",
      "type": "function",
      "constant": true
    },
    {
      "inputs": [],
      "name": "timeProcessOrder",
      "outputs": [
        {
          "internalType": "uint256",
          "name": "",
          "type": "uint256"
        }
      ],
      "stateMutability": "view",
      "type": "function",
      "constant": true
    },
    {
      "inputs": [
        {
          "internalType": "uint256",
          "name": "",
          "type": "uint256"
        },
        {
          "internalType": "uint256",
          "name": "",
          "type": "uint256"
        }
      ],
      "name": "timeSlotOrderPerSlot",
      "outputs": [
        {
          "internalType": "bool",
          "name": "",
          "type": "bool"
        }
      ],
      "stateMutability": "view",
      "type": "function",
      "constant": true
    },
    {
      "inputs": [],
      "name": "time_slot",
      "outputs": [
        {
          "internalType": "uint256",
          "name": "",
          "type": "uint256"
        }
      ],
      "stateMutability": "view",
      "type": "function",
      "constant": true
    },
    {
      "inputs": [],
      "name": "total_Slots",
      "outputs": [
        {
          "internalType": "uint256",
          "name": "",
          "type": "uint256"
        }
      ],
      "stateMutability": "view",
      "type": "function",
      "constant": true
    },
    {
      "inputs": [
        {
          "internalType": "uint256",
          "name": "_timeSlotOrder",
          "type": "uint256"
        },
        {
          "internalType": "uint256",
          "name": "_timeOfOrder",
          "type": "uint256"
        },
        {
          "internalType": "uint256",
          "name": "_OrderETA",
          "type": "uint256"
        }
      ],
      "name": "orderConsignment",
      "outputs": [],
      "stateMutability": "nonpayable",
      "type": "function"
    },
    {
      "inputs": [
        {
          "internalType": "uint256",
          "name": "_cosignmentOrderNumber",
          "type": "uint256"
        },
        {
          "internalType": "bool",
          "name": "_acceptinOrder",
          "type": "bool"
        },
        {
          "internalType": "uint256",
          "name": "_eta",
          "type": "uint256"
        }
      ],
      "name": "receiverConsignement",
      "outputs": [],
      "stateMutability": "nonpayable",
      "type": "function"
    },
    {
      "inputs": [
        {
          "internalType": "uint256",
          "name": "_cosignmentOrderNumber",
          "type": "uint256"
        },
        {
          "internalType": "uint256",
          "name": "_eta",
          "type": "uint256"
        }
      ],
      "name": "senderETA",
      "outputs": [],
      "stateMutability": "nonpayable",
      "type": "function"
    },
    {
      "inputs": [
        {
          "internalType": "uint256",
          "name": "_cosignmentOrderNumber",
          "type": "uint256"
        }
      ],
      "name": "settingFlagDecision",
      "outputs": [],
      "stateMutability": "nonpayable",
      "type": "function"
    },
    {
      "inputs": [
        {
          "internalType": "uint256",
          "name": "_consignmentOrderNumber",
          "type": "uint256"
        }
      ],
      "name": "sallySignature",
      "outputs": [],
      "stateMutability": "nonpayable",
      "type": "function"
    },
    {
      "inputs": [
        {
          "internalType": "uint256",
          "name": "_consignmentOrderNumber",
          "type": "uint256"
        }
      ],
      "name": "RobSignature",
      "outputs": [],
      "stateMutability": "nonpayable",
      "type": "function"
    },
    {
      "inputs": [
        {
          "internalType": "uint256",
          "name": "_consignmentOrderNumber",
          "type": "uint256"
        },
        {
          "internalType": "bool",
          "name": "_statusResolved",
          "type": "bool"
        }
      ],
      "name": "resolveDispute",
      "outputs": [],
      "stateMutability": "nonpayable",
      "type": "function"
    },
    {
      "inputs": [],
      "name": "asserOrders",
      "outputs": [
        {
          "internalType": "bool",
          "name": "",
          "type": "bool"
        }
      ],
      "stateMutability": "view",
      "type": "function",
      "constant": true
    },
    {
      "inputs": [
        {
          "internalType": "uint256",
          "name": "_enterPercent",
          "type": "uint256"
        }
      ],
      "name": "checkPerformance",
      "outputs": [
        {
          "internalType": "string",
          "name": "",
          "type": "string"
        }
      ],
      "stateMutability": "view",
      "type": "function",
      "constant": true
    }
  ],
  "bytecode": "0x6080604052600a600d553480156200001657600080fd5b5060405162002f1038038062002f1083398181016040528101906200003c91906200035f565b6040518060400160405280600d81526020017f526f62277320436f6d70616e790000000000000000000000000000000000000081525060009080519060200190620000899291906200020a565b5033600160006101000a81548173ffffffffffffffffffffffffffffffffffffffff021916908373ffffffffffffffffffffffffffffffffffffffff1602179055506040518060400160405280600f81526020017f53616c6c79277320436f6d70616e79000000000000000000000000000000000081525060029080519060200190620001189291906200020a565b5082600360006101000a81548173ffffffffffffffffffffffffffffffffffffffff021916908373ffffffffffffffffffffffffffffffffffffffff160217905550600160048190555060006006819055508160078190555080600881905550600a80819055506002601081905550601054600b81905550600d54600754600854620001a59190620003ea565b620001b1919062000454565b601054620001c091906200048c565b600c81905550600a6009819055506002600e8190555060026005819055506062600f819055506001601660006101000a81548160ff02191690831515021790555050505062000552565b82805462000218906200051c565b90600052602060002090601f0160209004810192826200023c576000855562000288565b82601f106200025757805160ff191683800117855562000288565b8280016001018555821562000288579182015b82811115620002875782518255916020019190600101906200026a565b5b5090506200029791906200029b565b5090565b5b80821115620002b65760008160009055506001016200029c565b5090565b600080fd5b600073ffffffffffffffffffffffffffffffffffffffff82169050919050565b6000620002ec82620002bf565b9050919050565b620002fe81620002df565b81146200030a57600080fd5b50565b6000815190506200031e81620002f3565b92915050565b6000819050919050565b620003398162000324565b81146200034557600080fd5b50565b60008151905062000359816200032e565b92915050565b6000806000606084860312156200037b576200037a620002ba565b5b60006200038b868287016200030d565b93505060206200039e8682870162000348565b9250506040620003b18682870162000348565b9150509250925092565b7f4e487b7100000000000000000000000000000000000000000000000000000000600052601160045260246000fd5b6000620003f78262000324565b9150620004048362000324565b9250828210156200041a5762000419620003bb565b5b828203905092915050565b7f4e487b7100000000000000000000000000000000000000000000000000000000600052601260045260246000fd5b6000620004618262000324565b91506200046e8362000324565b92508262000481576200048062000425565b5b828204905092915050565b6000620004998262000324565b9150620004a68362000324565b9250817fffffffffffffffffffffffffffffffffffffffffffffffffffffffffffffffff0483118215151615620004e257620004e1620003bb565b5b828202905092915050565b7f4e487b7100000000000000000000000000000000000000000000000000000000600052602260045260246000fd5b600060028204905060018216806200053557607f821691505b602082108114156200054c576200054b620004ed565b5b50919050565b6129ae80620005626000396000f3fe608060405234801561001057600080fd5b506004361061021c5760003560e01c8063806ec72711610125578063d7002c15116100ad578063ef71166a1161007c578063ef71166a146105f0578063f1179f5214610622578063f1c718e814610640578063f2be851c1461065e578063f8e4ceef1461067c5761021c565b8063d7002c151461057a578063d8ae35d114610598578063db48b436146105b4578063e6a7d217146105d25761021c565b8063924df30f116100f4578063924df30f146104e6578063a039fb7f14610504578063ad961b3d14610522578063c81cc5141461053e578063c9e525df1461055c5761021c565b8063806ec7271461046e57806386b714e21461048c578063880749e3146104aa5780638a054ac2146104c85761021c565b80634312988b116101a857806353df38d41161017757806353df38d4146103b157806355d441b5146103cd57806356a840471461040257806364f4dd3b146104205780637a695318146104505761021c565b80634312988b1461033b578063493718d0146103595780634ee128d0146103755780634fc84791146103935761021c565b806331d31953116101ef57806331d31953146102ab57806334b25ee2146102c9578063388e3e5f146102e55780633a3170011461030357806341f06c341461031f5761021c565b806313ac97f31461022157806321121cef1461023f57806326121ff01461026f5780632ac680621461028d575b600080fd5b6102296106b4565b6040516102369190611c07565b60405180910390f35b61025960048036038101906102549190611c5d565b6106c7565b6040516102669190611d23565b60405180910390f35b6102776107a2565b6040516102849190611d54565b60405180910390f35b6102956107a8565b6040516102a29190611d54565b60405180910390f35b6102b36107ae565b6040516102c09190611d54565b60405180910390f35b6102e360048036038101906102de9190611d9b565b6107b4565b005b6102ed6109d9565b6040516102fa9190611c07565b60405180910390f35b61031d60048036038101906103189190611ddb565b6109ec565b005b61033960048036038101906103349190611e2e565b610dc7565b005b610343610ee2565b6040516103509190611d23565b60405180910390f35b610373600480360381019061036e9190611c5d565b610f70565b005b61037d6110bd565b60405161038a9190611d54565b60405180910390f35b61039b6110c3565b6040516103a89190611eaf565b60405180910390f35b6103cb60048036038101906103c69190611c5d565b6110e9565b005b6103e760048036038101906103e29190611c5d565b611236565b6040516103f996959493929190611eca565b60405180910390f35b61040a61129f565b6040516104179190611d54565b60405180910390f35b61043a60048036038101906104359190611e2e565b6112a5565b6040516104479190611c07565b60405180910390f35b6104586112e8565b6040516104659190611d23565b60405180910390f35b610476611376565b6040516104839190611d54565b60405180910390f35b61049461137c565b6040516104a19190611d54565b60405180910390f35b6104b2611382565b6040516104bf9190611d54565b60405180910390f35b6104d0611388565b6040516104dd9190611d54565b60405180910390f35b6104ee61138e565b6040516104fb9190611d54565b60405180910390f35b61050c611394565b6040516105199190611eaf565b60405180910390f35b61053c60048036038101906105379190611c5d565b6113ba565b005b610546611618565b6040516105539190611d54565b60405180910390f35b61056461161e565b6040516105719190611d54565b60405180910390f35b610582611624565b60405161058f9190611d54565b60405180910390f35b6105b260048036038101906105ad9190611f2b565b61162a565b005b6105bc61199f565b6040516105c99190611d54565b60405180910390f35b6105da6119a5565b6040516105e79190611c07565b60405180910390f35b61060a60048036038101906106059190611c5d565b6119b8565b60405161061993929190611f7e565b60405180910390f35b61062a6119fc565b6040516106379190611d54565b60405180910390f35b610648611a02565b6040516106559190611d54565b60405180910390f35b610666611a08565b6040516106739190611c07565b60405180910390f35b61069660048036038101906106919190611c5d565b611a96565b6040516106ab9998979695949392919061202c565b60405180910390f35b601660009054906101000a900460ff1681565b606060001515601660009054906101000a900460ff1615151461071f576040517f08c379a00000000000000000000000000000000000000000000000000000000081526004016107169061212b565b60405180910390fd5b60628210610764576040518060400160405280600781526020017f5375636365737300000000000000000000000000000000000000000000000000815250905061079d565b6040518060400160405280600481526020017f4661696c0000000000000000000000000000000000000000000000000000000081525090505b919050565b60145481565b600a5481565b600b5481565b816003808111156107c8576107c7611fb5565b5b6019600083815260200190815260200160002060060160149054906101000a900460ff1660038111156107fe576107fd611fb5565b5b1461083e576040517f08c379a000000000000000000000000000000000000000000000000000000000815260040161083590612197565b60405180910390fd5b60011515601a600085815260200190815260200160002060010160019054906101000a900460ff16151514801561089c575060011515601a600085815260200190815260200160002060010160009054906101000a900460ff161515145b6108db576040517f08c379a00000000000000000000000000000000000000000000000000000000081526004016108d290612203565b60405180910390fd5b60011515821515141561094d5760016019600085815260200190815260200160002060060160146101000a81548160ff0219169083600381111561092257610921611fb5565b5b021790555061093083611b1e565b6013600081548092919061094390612252565b91905055506109bc565b6000151582151514156109bb5760026019600085815260200190815260200160002060060160146101000a81548160ff0219169083600381111561099457610993611fb5565b5b02179055506109a283611b1e565b601460008154809291906109b590612252565b91905055505b5b601560008154809291906109cf9061229b565b9190505550505050565b600360149054906101000a900460ff1681565b3373ffffffffffffffffffffffffffffffffffffffff16600160009054906101000a900473ffffffffffffffffffffffffffffffffffffffff1673ffffffffffffffffffffffffffffffffffffffff1614610a7c576040517f08c379a0000000000000000000000000000000000000000000000000000000008152600401610a7390612311565b60405180910390fd5b826000108015610a8e5750600a548311155b610acd576040517f08c379a0000000000000000000000000000000000000000000000000000000008152600401610ac49061237d565b60405180910390fd5b6007548210158015610aed5750600e54600854610aea919061239d565b82105b610b2c576040517f08c379a0000000000000000000000000000000000000000000000000000000008152600401610b2390612443565b60405180910390fd5b600e5482610b3a9190612463565b8111610b7b576040517f08c379a0000000000000000000000000000000000000000000000000000000008152600401610b7290612505565b60405180910390fd5b600c5460115410610bc1576040517f08c379a0000000000000000000000000000000000000000000000000000000008152600401610bb890612571565b60405180910390fd5b60116000815480929190610bd490612252565b9190505550600c546011541415610c01576000601660006101000a81548160ff0219169083151502179055505b601054601760008581526020019081526020016000208054905010610c5b576040517f08c379a0000000000000000000000000000000000000000000000000000000008152600401610c52906125dd565b60405180910390fd5b60176000848152602001908152602001600020600190806001815401808255809150506001900390600052602060002090602091828204019190069091909190916101000a81548160ff0219169083151502179055506040518060c001604052806011548152602001848152602001838152602001600360009054906101000a900473ffffffffffffffffffffffffffffffffffffffff1673ffffffffffffffffffffffffffffffffffffffff1681526020018281526020016000151581525060186000601154815260200190815260200160002060008201518160000155602082015181600101556040820151816002015560608201518160030160006101000a81548173ffffffffffffffffffffffffffffffffffffffff021916908373ffffffffffffffffffffffffffffffffffffffff1602179055506080820151816004015560a08201518160050160006101000a81548160ff021916908315150217905550905050505050565b3373ffffffffffffffffffffffffffffffffffffffff16600360009054906101000a900473ffffffffffffffffffffffffffffffffffffffff1673ffffffffffffffffffffffffffffffffffffffff1614610e57576040517f08c379a0000000000000000000000000000000000000000000000000000000008152600401610e4e90612649565b60405180910390fd5b81600015156019600083815260200190815260200160002060060160159054906101000a900460ff16151514610ec2576040517f08c379a0000000000000000000000000000000000000000000000000000000008152600401610eb9906126b5565b60405180910390fd5b816019600085815260200190815260200160002060050181905550505050565b60028054610eef90612704565b80601f0160208091040260200160405190810160405280929190818152602001828054610f1b90612704565b8015610f685780601f10610f3d57610100808354040283529160200191610f68565b820191906000526020600020905b815481529060010190602001808311610f4b57829003601f168201915b505050505081565b80600380811115610f8457610f83611fb5565b5b6019600083815260200190815260200160002060060160149054906101000a900460ff166003811115610fba57610fb9611fb5565b5b14610ffa576040517f08c379a0000000000000000000000000000000000000000000000000000000008152600401610ff190612197565b60405180910390fd5b3373ffffffffffffffffffffffffffffffffffffffff16600160009054906101000a900473ffffffffffffffffffffffffffffffffffffffff1673ffffffffffffffffffffffffffffffffffffffff161461108a576040517f08c379a000000000000000000000000000000000000000000000000000000000815260040161108190612311565b60405180910390fd5b6001601a600084815260200190815260200160002060010160016101000a81548160ff0219169083151502179055505050565b60105481565b600360009054906101000a900473ffffffffffffffffffffffffffffffffffffffff1681565b806003808111156110fd576110fc611fb5565b5b6019600083815260200190815260200160002060060160149054906101000a900460ff16600381111561113357611132611fb5565b5b14611173576040517f08c379a000000000000000000000000000000000000000000000000000000000815260040161116a90612197565b60405180910390fd5b3373ffffffffffffffffffffffffffffffffffffffff16600360009054906101000a900473ffffffffffffffffffffffffffffffffffffffff1673ffffffffffffffffffffffffffffffffffffffff1614611203576040517f08c379a00000000000000000000000000000000000000000000000000000000081526004016111fa90612649565b60405180910390fd5b6001601a600084815260200190815260200160002060010160006101000a81548160ff0219169083151502179055505050565b60186020528060005260406000206000915090508060000154908060010154908060020154908060030160009054906101000a900473ffffffffffffffffffffffffffffffffffffffff16908060040154908060050160009054906101000a900460ff16905086565b60115481565b601760205281600052604060002081815481106112c157600080fd5b9060005260206000209060209182820401919006915091509054906101000a900460ff1681565b600080546112f590612704565b80601f016020809104026020016040519081016040528092919081815260200182805461132190612704565b801561136e5780601f106113435761010080835404028352916020019161136e565b820191906000526020600020905b81548152906001019060200180831161135157829003601f168201915b505050505081565b60055481565b60135481565b60065481565b60155481565b60095481565b600160009054906101000a900473ffffffffffffffffffffffffffffffffffffffff1681565b80600015156019600083815260200190815260200160002060060160159054906101000a900460ff16151514611425576040517f08c379a000000000000000000000000000000000000000000000000000000000815260040161141c906126b5565b60405180910390fd5b600060196000848152602001908152602001600020600501541415801561146357506000601960008481526020019081526020016000206004015414155b6114a2576040517f08c379a000000000000000000000000000000000000000000000000000000000815260040161149990612782565b60405180910390fd5b6000600160186000858152602001908152602001600020600401546114c79190612463565b90506000600160186000868152602001908152602001600020600401546114ee919061239d565b90506000601960008681526020019081526020016000206005015490506000601960008781526020019081526020016000206004015490508183111580156115365750838211155b80156115425750808311155b801561154e5750838111155b156115b85760016019600088815260200190815260200160002060060160146101000a81548160ff0219169083600381111561158d5761158c611fb5565b5b021790555061159b86611b1e565b601360008154809291906115ae90612252565b9190505550611610565b60036019600088815260200190815260200160002060060160146101000a81548160ff021916908360038111156115f2576115f1611fb5565b5b02179055506015600081548092919061160a90612252565b91905055505b505050505050565b600e5481565b60125481565b600c5481565b3373ffffffffffffffffffffffffffffffffffffffff16600160009054906101000a900473ffffffffffffffffffffffffffffffffffffffff1673ffffffffffffffffffffffffffffffffffffffff16146116ba576040517f08c379a00000000000000000000000000000000000000000000000000000000081526004016116b190612311565b60405180910390fd5b82600015156019600083815260200190815260200160002060060160159054906101000a900460ff16151514611725576040517f08c379a000000000000000000000000000000000000000000000000000000000815260040161171c906126b5565b60405180910390fd5b60001515601660019054906101000a900460ff1615151461177b576040517f08c379a0000000000000000000000000000000000000000000000000000000008152600401611772906127ee565b60405180910390fd5b6000600381111561178f5761178e611fb5565b5b6019600086815260200190815260200160002060060160149054906101000a900460ff1660038111156117c5576117c4611fb5565b5b14611805576040517f08c379a00000000000000000000000000000000000000000000000000000000081526004016117fc9061285a565b60405180910390fd5b60006018600086815260200190815260200160002060000154141561185f576040517f08c379a0000000000000000000000000000000000000000000000000000000008152600401611856906128c6565b60405180910390fd5b836019600086815260200190815260200160002060000181905550601860008581526020019081526020016000206004015460196000868152602001908152602001600020600301819055506001151583151514156118e1578160196000868152602001908152602001600020600401819055506118dc84611b50565b611959565b6000151583151514156119585760026019600086815260200190815260200160002060060160146101000a81548160ff0219169083600381111561192857611927611fb5565b5b021790555061193684611b50565b61193f84611b1e565b6014600081548092919061195290612252565b91905055505b5b6012600081548092919061196c90612252565b9190505550600c546012541415611999576001601660016101000a81548160ff0219169083151502179055505b50505050565b60075481565b601660019054906101000a900460ff1681565b601a6020528060005260406000206000915090508060000154908060010160009054906101000a900460ff16908060010160019054906101000a900460ff16905083565b600d5481565b60085481565b6000801515601660009054906101000a900460ff16151514611a5f576040517f08c379a0000000000000000000000000000000000000000000000000000000008152600401611a569061212b565b60405180910390fd5b601454601554601354611a729190612463565b611a7c9190612463565b6011541415611a8e5760019050611a93565b600090505b90565b60196020528060005260406000206000915090508060000154908060010154908060020154908060030154908060040154908060050154908060060160009054906101000a900473ffffffffffffffffffffffffffffffffffffffff16908060060160149054906101000a900460ff16908060060160159054906101000a900460ff16905089565b60016019600083815260200190815260200160002060060160156101000a81548160ff02191690831515021790555050565b600015156018600083815260200190815260200160002060050160009054906101000a900460ff16151514611bba576040517f08c379a0000000000000000000000000000000000000000000000000000000008152600401611bb190612958565b60405180910390fd5b60016018600083815260200190815260200160002060050160006101000a81548160ff02191690831515021790555050565b60008115159050919050565b611c0181611bec565b82525050565b6000602082019050611c1c6000830184611bf8565b92915050565b600080fd5b6000819050919050565b611c3a81611c27565b8114611c4557600080fd5b50565b600081359050611c5781611c31565b92915050565b600060208284031215611c7357611c72611c22565b5b6000611c8184828501611c48565b91505092915050565b600081519050919050565b600082825260208201905092915050565b60005b83811015611cc4578082015181840152602081019050611ca9565b83811115611cd3576000848401525b50505050565b6000601f19601f8301169050919050565b6000611cf582611c8a565b611cff8185611c95565b9350611d0f818560208601611ca6565b611d1881611cd9565b840191505092915050565b60006020820190508181036000830152611d3d8184611cea565b905092915050565b611d4e81611c27565b82525050565b6000602082019050611d696000830184611d45565b92915050565b611d7881611bec565b8114611d8357600080fd5b50565b600081359050611d9581611d6f565b92915050565b60008060408385031215611db257611db1611c22565b5b6000611dc085828601611c48565b9250506020611dd185828601611d86565b9150509250929050565b600080600060608486031215611df457611df3611c22565b5b6000611e0286828701611c48565b9350506020611e1386828701611c48565b9250506040611e2486828701611c48565b9150509250925092565b60008060408385031215611e4557611e44611c22565b5b6000611e5385828601611c48565b9250506020611e6485828601611c48565b9150509250929050565b600073ffffffffffffffffffffffffffffffffffffffff82169050919050565b6000611e9982611e6e565b9050919050565b611ea981611e8e565b82525050565b6000602082019050611ec46000830184611ea0565b92915050565b600060c082019050611edf6000830189611d45565b611eec6020830188611d45565b611ef96040830187611d45565b611f066060830186611ea0565b611f136080830185611d45565b611f2060a0830184611bf8565b979650505050505050565b600080600060608486031215611f4457611f43611c22565b5b6000611f5286828701611c48565b9350506020611f6386828701611d86565b9250506040611f7486828701611c48565b9150509250925092565b6000606082019050611f936000830186611d45565b611fa06020830185611bf8565b611fad6040830184611bf8565b949350505050565b7f4e487b7100000000000000000000000000000000000000000000000000000000600052602160045260246000fd5b60048110611ff557611ff4611fb5565b5b50565b600081905061200682611fe4565b919050565b600061201682611ff8565b9050919050565b6120268161200b565b82525050565b600061012082019050612042600083018c611d45565b61204f602083018b611d45565b61205c604083018a611d45565b6120696060830189611d45565b6120766080830188611d45565b61208360a0830187611d45565b61209060c0830186611ea0565b61209d60e083018561201d565b6120ab610100830184611bf8565b9a9950505050505050505050565b7f43616e6e6f7420636865636b206265636175736520666c6167436f6e74696e7560008201527f6520697320747275650000000000000000000000000000000000000000000000602082015250565b6000612115602983611c95565b9150612120826120b9565b604082019050919050565b6000602082019050818103600083015261214481612108565b9050919050565b7f4120444953505554452069732072657175697265640000000000000000000000600082015250565b6000612181601583611c95565b915061218c8261214b565b602082019050919050565b600060208201905081810360008301526121b081612174565b9050919050565b7f426f74682073686f756c64207369676e21000000000000000000000000000000600082015250565b60006121ed601183611c95565b91506121f8826121b7565b602082019050919050565b6000602082019050818103600083015261221c816121e0565b9050919050565b7f4e487b7100000000000000000000000000000000000000000000000000000000600052601160045260246000fd5b600061225d82611c27565b91507fffffffffffffffffffffffffffffffffffffffffffffffffffffffffffffffff8214156122905761228f612223565b5b600182019050919050565b60006122a682611c27565b915060008214156122ba576122b9612223565b5b600182039050919050565b7f4f6e6c7920526f622063616e204f726465722100000000000000000000000000600082015250565b60006122fb601383611c95565b9150612306826122c5565b602082019050919050565b6000602082019050818103600083015261232a816122ee565b9050919050565b7f4e6f7420696e20746f74616c20736c6f742072616e6765000000000000000000600082015250565b6000612367601783611c95565b915061237282612331565b602082019050919050565b600060208201905081810360008301526123968161235a565b9050919050565b60006123a882611c27565b91506123b383611c27565b9250828210156123c6576123c5612223565b5b828203905092915050565b7f546865206f726465722073686f756c642062652077697468696e20746865207260008201527f616e676500000000000000000000000000000000000000000000000000000000602082015250565b600061242d602483611c95565b9150612438826123d1565b604082019050919050565b6000602082019050818103600083015261245c81612420565b9050919050565b600061246e82611c27565b915061247983611c27565b9250827fffffffffffffffffffffffffffffffffffffffffffffffffffffffffffffffff038211156124ae576124ad612223565b5b828201905092915050565b7f53756368206f726465722063616e6e6f742062652070726f6365737365640000600082015250565b60006124ef601e83611c95565b91506124fa826124b9565b602082019050919050565b6000602082019050818103600083015261251e816124e2565b9050919050565b7f4d6178696d756d204f7264657273205265616368656421000000000000000000600082015250565b600061255b601783611c95565b915061256682612525565b602082019050919050565b6000602082019050818103600083015261258a8161254e565b9050919050565b7f54696d6520536c6f74206f72646572204d617865640000000000000000000000600082015250565b60006125c7601583611c95565b91506125d282612591565b602082019050919050565b600060208201905081810360008301526125f6816125ba565b9050919050565b7f4f6e6c792053616c6c792063616e206163636573732100000000000000000000600082015250565b6000612633601683611c95565b915061263e826125fd565b602082019050919050565b6000602082019050818103600083015261266281612626565b9050919050565b7f4465636973696f6e206973204d61646521000000000000000000000000000000600082015250565b600061269f601183611c95565b91506126aa82612669565b602082019050919050565b600060208201905081810360008301526126ce81612692565b9050919050565b7f4e487b7100000000000000000000000000000000000000000000000000000000600052602260045260246000fd5b6000600282049050600182168061271c57607f821691505b602082108114156127305761272f6126d5565b5b50919050565b7f455441206e6f742064656c697665726564210000000000000000000000000000600082015250565b600061276c601283611c95565b915061277782612736565b602082019050919050565b6000602082019050818103600083015261279b8161275f565b9050919050565b7f416c6c2064656c69766572696573205265636569766564000000000000000000600082015250565b60006127d8601783611c95565b91506127e3826127a2565b602082019050919050565b60006020820190508181036000830152612807816127cb565b9050919050565b7f54686520737461747573206f6e2044656c69766572792069732066696e616c00600082015250565b6000612844601f83611c95565b915061284f8261280e565b602082019050919050565b6000602082019050818103600083015261287381612837565b9050919050565b7f44656c697665727920697320656d707479000000000000000000000000000000600082015250565b60006128b0601183611c95565b91506128bb8261287a565b602082019050919050565b600060208201905081810360008301526128df816128a3565b9050919050565b7f54686973206f726465722068617320616c7265616479206265696e67206d6f6460008201527f6966696564210000000000000000000000000000000000000000000000000000602082015250565b6000612942602683611c95565b915061294d826128e6565b604082019050919050565b6000602082019050818103600083015261297181612935565b905091905056fea26469706673582212203c698d452e8862bc169752589f8f36564fedc60a0ef7e81123c0acf814ed363964736f6c63430008090033",
  "immutableReferences": {},
  "source": "// SPDX-License-Identifier: MIT\npragma solidity <0.8.10;\n\ncontract TradingAgreement{\n\n    // Receiveing Company Information\n    string public ownerCompanyName;\n    address public ownerReceiver;\n\n    // Sender Company Information\n    string public senderCompanyName;\n    address public senderAddress;\n\n    bool public senderAgreement; // flagSign will be set true\n\n    // Consignment count, it will always start from 1, because initialization is always zero\n    uint countOfShipper;\n\n    // ETA of Consignment\n    uint public consignmentETARange;\n\n    // contract's TimeInformation;\n    uint public T_Deployment;\n    uint public T_start;\n    uint public T_end;\n    uint public T_agreement;\n    uint public total_Slots;\n\n    // Contract Consignment Order;\n    uint public N_min;\n    uint public N_max;\n\n    // T, i.e. time slot\n    uint public time_slot = 10;\n\n    // Time to process the order\n    uint public timeProcessOrder;\n\n    // Rate of success\n    uint rate_of_success;\n\n    // N, i.e.n number of allowed orders within time_slot.\n    uint public orderPerSlot;\n\n    // initialzing, performance variable;\n    uint public OrderBookIncrementor; // this is sepatate and will increment sepatately\n    uint public N;\n    uint public s;\n    uint public f;\n    uint public d;\n    bool public flagContinue;\n    bool public ContractEndAgreement; //default false\n\n    constructor(address _senderAddress, uint _startTime, uint _endTime) {\n        // For the moment, the following information is hardcoded.\n\n        // Predeclaring information for Rob, The Receiver\n        ownerCompanyName = \"Rob's Company\";\n        ownerReceiver = msg.sender;\n\n        // Predeclaring information for Sally, The Sender\n        senderCompanyName = \"Sally's Company\";\n        senderAddress = _senderAddress;\n\n        // initiallizing shipping counter.\n        countOfShipper = 1; // Start from 0....\n\n        // Contract Information Timeline\n        T_Deployment = 0;\n        T_start = _startTime \t; // Later: 1577858400, Wed Jan 01 2020 09:00:00 GMT+0300 (Moscow Standard Time)\n        T_end = _endTime; // Later: 1609426800, Thu Dec 31 2020 18:00:00 GMT+0300 (Moscow Standard Time)\n\n        total_Slots = 10;\n\n        orderPerSlot = 2;\n        N_min = orderPerSlot;\n        N_max = orderPerSlot * ((T_end-T_start)/time_slot);\n\n\n        // agreement time is 2 days\n        T_agreement = 10; // Later: 172800\n\n        // We are assuming that time to process each order will be fixed time, lets say 2 days, i.e. 172800 seconds is the ETA and this will have  10% margin, therefore:= 4,8 hours\n        timeProcessOrder = 2; //later: 2 days for now 2 sec.\n        consignmentETARange = 2; // 2 days (inluding)\n\n        // Rate of success\n        rate_of_success = 98; // % of rate of success\n\n        flagContinue = true;\n    }\n\n    mapping(uint => bool[]) public timeSlotOrderPerSlot;\n\n    struct orderBook{\n\n        uint consignmentnumber;\n\n        uint timeSlotOfOrder;\n        uint timeOfOrder;\n\n        address consignmentSender;\n        uint ETA;\n        bool DeliveryReviewed;\n    }\n\n\n    mapping(uint => orderBook) public orderBookConsignment;\n\n    enum DeliveryStatus {NONE, SUCCESS, FAILED, DISPUTE}\n\n    struct deliveryConsignmentInformation{\n        uint consignmentnumber;\n        uint consignmentOrderTime;\n        uint consignmnetShippingTime; // this should be 24 hrs plus, i.e it is T_processing\n\n        uint ETAasPerOrder; //This is time which should be within that week\n        uint RobETA;\n        uint SallyETA;\n\n        address consignmentSender;\n\n        DeliveryStatus DeliveryStatusOnDelivery;\n        bool flagDecision;\n    }\n\n    mapping(uint => deliveryConsignmentInformation) public receivingConsignmentBook;\n\n    function orderConsignment(uint _timeSlotOrder, uint _timeOfOrder,uint _OrderETA) public onlyOwner{ //Question do we need to iterate sequestion for making orders or random is possible\n        // TimeSlot should be in range\n        require(0<_timeSlotOrder && _timeSlotOrder<=total_Slots,'Not in total slot range');\n\n        //Order Shouldbe Withing the range.\n        require(_timeOfOrder>=T_start && _timeOfOrder<T_end - timeProcessOrder,\"The order should be within the range\");\n\n        // ETA > _timeOfOrder + timeProcessOrder\n        require(_OrderETA > _timeOfOrder + timeProcessOrder, \"Such order cannot be processed\");\n\n        //Order Should be Withing the range.\n        require(OrderBookIncrementor<N_max,'Maximum Orders Reached!');\n        OrderBookIncrementor++;\n        if(OrderBookIncrementor==N_max){\n            flagContinue = false;\n        }\n\n        require(timeSlotOrderPerSlot[_timeSlotOrder].length < orderPerSlot,\"Time Slot order Maxed\");\n        timeSlotOrderPerSlot[_timeSlotOrder].push(true);\n        orderBookConsignment[OrderBookIncrementor] = orderBook(OrderBookIncrementor,_timeSlotOrder,_timeOfOrder,senderAddress,_OrderETA,false);\n    }\n\n    // Some non repetative internal functions\n    function _completeOrderReview(uint _orderNumber) private{\n        require(orderBookConsignment[_orderNumber].DeliveryReviewed == false, 'This order has already being modified!');\n        orderBookConsignment[_orderNumber].DeliveryReviewed = true;\n    }\n\n    function _settingFlag(uint _cosignmentOrderNumber) private {\n        receivingConsignmentBook[_cosignmentOrderNumber].flagDecision = true;\n    }\n\n    function receiverConsignement(uint _cosignmentOrderNumber, bool _acceptinOrder, uint _eta) public onlyOwner noDecision(_cosignmentOrderNumber){\n        // require that status of the DeliveryStatusOnDelivery = 0, i.e. enum status = NONE\n        require(ContractEndAgreement == false, \"All deliveries Received\");\n        require(receivingConsignmentBook[_cosignmentOrderNumber].DeliveryStatusOnDelivery == DeliveryStatus.NONE,\"The status on Delivery is final\");\n\n        //Delivery order should not be empty\n        require(orderBookConsignment[_cosignmentOrderNumber].consignmentnumber !=0, 'Delivery is empty');\n\n        receivingConsignmentBook[_cosignmentOrderNumber].consignmentnumber = _cosignmentOrderNumber;\n\n        // ETA as per order\n        receivingConsignmentBook[_cosignmentOrderNumber].ETAasPerOrder =  orderBookConsignment[_cosignmentOrderNumber].ETA;\n\n        if (_acceptinOrder == true){\n            receivingConsignmentBook[_cosignmentOrderNumber].RobETA = _eta;\n            _completeOrderReview(_cosignmentOrderNumber);\n        }\n\n        else if(_acceptinOrder == false){\n            receivingConsignmentBook[_cosignmentOrderNumber].DeliveryStatusOnDelivery = DeliveryStatus.FAILED;\n            _completeOrderReview(_cosignmentOrderNumber);\n            _settingFlag(_cosignmentOrderNumber);\n            f++;\n        }\n        N++;\n        if(N == N_max){\n            ContractEndAgreement = true;\n        }\n    }\n\n    // initiallizing Sally and Rob Details\n    function senderETA(uint _cosignmentOrderNumber, uint _eta) public onlySender noDecision(_cosignmentOrderNumber){\n        receivingConsignmentBook[_cosignmentOrderNumber].SallyETA = _eta;\n    }\n\n    // setting flagDecision\n    function settingFlagDecision(uint _cosignmentOrderNumber) public noDecision(_cosignmentOrderNumber){\n        // checking that it should either be failed transaction or ETAs not empty\n        require(receivingConsignmentBook[_cosignmentOrderNumber].SallyETA != 0 && receivingConsignmentBook[_cosignmentOrderNumber].RobETA !=0,\"ETA not delivered!\");\n\n        uint _etaUp = orderBookConsignment[_cosignmentOrderNumber].ETA + 1;\n        uint _etaLow = orderBookConsignment[_cosignmentOrderNumber].ETA - 1;\n\n        uint _etaSally = receivingConsignmentBook[_cosignmentOrderNumber].SallyETA;\n        uint _etaRob = receivingConsignmentBook[_cosignmentOrderNumber].RobETA;\n\n        /* checking the range:\n        _etaLow <= (etaSally and etaRob) <= _etaUp\n        */\n        if(_etaLow <= _etaSally && _etaSally <= _etaUp && _etaLow <= _etaRob && _etaRob <=_etaUp){\n            // setting flag to Success\n            receivingConsignmentBook[_cosignmentOrderNumber].DeliveryStatusOnDelivery = DeliveryStatus.SUCCESS;\n            _settingFlag(_cosignmentOrderNumber);\n            s++;\n        }\n\n        else{\n            receivingConsignmentBook[_cosignmentOrderNumber].DeliveryStatusOnDelivery = DeliveryStatus.DISPUTE;\n            d++;\n        }\n    }\n\n\n    // NOW we want to resolve the dispuite\n    struct multiSig{\n        uint courierNumber;\n        bool signatureSally;\n        bool signatureRob;\n    }\n\n    mapping(uint => multiSig) public multiSigBook;\n\n    function sallySignature(uint _consignmentOrderNumber) public disputed(_consignmentOrderNumber) onlySender{\n        multiSigBook[_consignmentOrderNumber].signatureSally = true;\n    }\n\n    function RobSignature(uint _consignmentOrderNumber) public disputed(_consignmentOrderNumber) onlyOwner{\n        multiSigBook[_consignmentOrderNumber].signatureRob = true;\n    }\n\n    function resolveDispute(uint _consignmentOrderNumber,bool _statusResolved) public disputed(_consignmentOrderNumber){\n        // signatures should not be empty\n        require(multiSigBook[_consignmentOrderNumber].signatureRob == true && multiSigBook[_consignmentOrderNumber].signatureSally == true, 'Both should sign!');\n        // It is success\n        if(_statusResolved == true){\n            receivingConsignmentBook[_consignmentOrderNumber].DeliveryStatusOnDelivery = DeliveryStatus.SUCCESS;\n            _settingFlag(_consignmentOrderNumber);\n            s++;\n        }\n\n        else if(_statusResolved == false){\n            receivingConsignmentBook[_consignmentOrderNumber].DeliveryStatusOnDelivery = DeliveryStatus.FAILED;\n            _settingFlag(_consignmentOrderNumber);\n            f++;\n        }\n        d--;\n    }\n\n    function asserOrders() public view flagFalse returns(bool){\n        if (OrderBookIncrementor == s + d + f){\n            return true;\n        }\n        else{\n            return false;\n        }\n    }\n\n\n\n    function checkPerformance(uint _enterPercent) public view flagFalse returns(string memory){\n\n\n        if(_enterPercent >= 98){\n            return \"Success\";\n        }\n\n        else{\n            return \"Fail\";\n        }\n    }\n\n    modifier onlyOwner(){\n        require(ownerReceiver == msg.sender,\"Only Rob can Order!\");\n        _;\n    }\n\n    modifier onlySender(){\n        require(senderAddress == msg.sender,\"Only Sally can access!\");\n        _;\n    }\n\n    modifier flagFalse(){\n        require(flagContinue == false,\"Cannot check because flagContinue is true\");\n        _;\n    }\n\n    modifier onlyTansactingParties(){\n        require(ownerReceiver == msg.sender || senderAddress == msg.sender, \"Either Sally or Rob should audit\");\n        _;\n    }\n\n    modifier noDecision(uint _consignmentOrderNumber){\n        require(receivingConsignmentBook[_consignmentOrderNumber].flagDecision == false,\"Decision is Made!\");\n        _;\n    }\n\n    modifier disputed(uint _consignmentOrderNumber){\n        require(receivingConsignmentBook[_consignmentOrderNumber].DeliveryStatusOnDelivery == DeliveryStatus.DISPUTE,\"A DISPUTE is required\");\n        _;\n    }\n\n\n}\n",
  "sourcePath": "/Users/yashmadhwal/Documents/Yash Madhwal/Ongoing (Reseach)/Proof_of_Delivery/PoD_ETA/SupplyChainPerformance /contracts/TradingAgreement.sol",
  "compiler": {
    "name": "solc",
    "version": "0.8.9+commit.e5eed63a.Emscripten.clang"
  },
  "schemaVersion": "3.4.2",
  "updatedAt": "2022-02-11T14:41:09.709Z",
  "networkType": "ethereum",
  "devdoc": {
    "kind": "dev",
    "methods": {},
    "version": 1
  },
  "userdoc": {
    "kind": "user",
    "methods": {},
    "version": 1
  }
}