{
  "contractName": "TradingAgreement",
  "abi": [
    {
      "inputs": [
        {
          "internalType": "address",
          "name": "_senderAddress",
          "type": "address"
        },
        {
          "internalType": "uint256",
          "name": "_startTime",
          "type": "uint256"
        },
        {
          "internalType": "uint256",
          "name": "_endTime",
          "type": "uint256"
        }
      ],
      "payable": false,
      "stateMutability": "nonpayable",
      "type": "constructor"
    },
    {
      "constant": true,
      "inputs": [],
      "name": "ContractEndAgreement",
      "outputs": [
        {
          "internalType": "bool",
          "name": "",
          "type": "bool"
        }
      ],
      "payable": false,
      "stateMutability": "view",
      "type": "function"
    },
    {
      "constant": true,
      "inputs": [],
      "name": "N",
      "outputs": [
        {
          "internalType": "uint256",
          "name": "",
          "type": "uint256"
        }
      ],
      "payable": false,
      "stateMutability": "view",
      "type": "function"
    },
    {
      "constant": true,
      "inputs": [],
      "name": "N_max",
      "outputs": [
        {
          "internalType": "uint256",
          "name": "",
          "type": "uint256"
        }
      ],
      "payable": false,
      "stateMutability": "view",
      "type": "function"
    },
    {
      "constant": true,
      "inputs": [],
      "name": "N_min",
      "outputs": [
        {
          "internalType": "uint256",
          "name": "",
          "type": "uint256"
        }
      ],
      "payable": false,
      "stateMutability": "view",
      "type": "function"
    },
    {
      "constant": true,
      "inputs": [],
      "name": "OrderBookIncrementor",
      "outputs": [
        {
          "internalType": "uint256",
          "name": "",
          "type": "uint256"
        }
      ],
      "payable": false,
      "stateMutability": "view",
      "type": "function"
    },
    {
      "constant": true,
      "inputs": [],
      "name": "T_Deployment",
      "outputs": [
        {
          "internalType": "uint256",
          "name": "",
          "type": "uint256"
        }
      ],
      "payable": false,
      "stateMutability": "view",
      "type": "function"
    },
    {
      "constant": true,
      "inputs": [],
      "name": "T_agreement",
      "outputs": [
        {
          "internalType": "uint256",
          "name": "",
          "type": "uint256"
        }
      ],
      "payable": false,
      "stateMutability": "view",
      "type": "function"
    },
    {
      "constant": true,
      "inputs": [],
      "name": "T_end",
      "outputs": [
        {
          "internalType": "uint256",
          "name": "",
          "type": "uint256"
        }
      ],
      "payable": false,
      "stateMutability": "view",
      "type": "function"
    },
    {
      "constant": true,
      "inputs": [],
      "name": "T_start",
      "outputs": [
        {
          "internalType": "uint256",
          "name": "",
          "type": "uint256"
        }
      ],
      "payable": false,
      "stateMutability": "view",
      "type": "function"
    },
    {
      "constant": true,
      "inputs": [],
      "name": "consignmentETARange",
      "outputs": [
        {
          "internalType": "uint256",
          "name": "",
          "type": "uint256"
        }
      ],
      "payable": false,
      "stateMutability": "view",
      "type": "function"
    },
    {
      "constant": true,
      "inputs": [],
      "name": "d",
      "outputs": [
        {
          "internalType": "uint256",
          "name": "",
          "type": "uint256"
        }
      ],
      "payable": false,
      "stateMutability": "view",
      "type": "function"
    },
    {
      "constant": true,
      "inputs": [],
      "name": "f",
      "outputs": [
        {
          "internalType": "uint256",
          "name": "",
          "type": "uint256"
        }
      ],
      "payable": false,
      "stateMutability": "view",
      "type": "function"
    },
    {
      "constant": true,
      "inputs": [],
      "name": "flagContinue",
      "outputs": [
        {
          "internalType": "bool",
          "name": "",
          "type": "bool"
        }
      ],
      "payable": false,
      "stateMutability": "view",
      "type": "function"
    },
    {
      "constant": true,
      "inputs": [
        {
          "internalType": "uint256",
          "name": "",
          "type": "uint256"
        }
      ],
      "name": "multiSigBook",
      "outputs": [
        {
          "internalType": "uint256",
          "name": "courierNumber",
          "type": "uint256"
        },
        {
          "internalType": "bool",
          "name": "signatureSally",
          "type": "bool"
        },
        {
          "internalType": "bool",
          "name": "signatureRob",
          "type": "bool"
        }
      ],
      "payable": false,
      "stateMutability": "view",
      "type": "function"
    },
    {
      "constant": true,
      "inputs": [
        {
          "internalType": "uint256",
          "name": "",
          "type": "uint256"
        }
      ],
      "name": "orderBookConsignment",
      "outputs": [
        {
          "internalType": "uint256",
          "name": "consignmentnumber",
          "type": "uint256"
        },
        {
          "internalType": "uint256",
          "name": "timeSlotOfOrder",
          "type": "uint256"
        },
        {
          "internalType": "uint256",
          "name": "timeOfOrder",
          "type": "uint256"
        },
        {
          "internalType": "address",
          "name": "consignmentSender",
          "type": "address"
        },
        {
          "internalType": "uint256",
          "name": "ETA",
          "type": "uint256"
        },
        {
          "internalType": "bool",
          "name": "DeliveryReviewed",
          "type": "bool"
        }
      ],
      "payable": false,
      "stateMutability": "view",
      "type": "function"
    },
    {
      "constant": true,
      "inputs": [],
      "name": "orderPerSlot",
      "outputs": [
        {
          "internalType": "uint256",
          "name": "",
          "type": "uint256"
        }
      ],
      "payable": false,
      "stateMutability": "view",
      "type": "function"
    },
    {
      "constant": true,
      "inputs": [],
      "name": "ownerCompanyName",
      "outputs": [
        {
          "internalType": "string",
          "name": "",
          "type": "string"
        }
      ],
      "payable": false,
      "stateMutability": "view",
      "type": "function"
    },
    {
      "constant": true,
      "inputs": [],
      "name": "ownerReceiver",
      "outputs": [
        {
          "internalType": "address",
          "name": "",
          "type": "address"
        }
      ],
      "payable": false,
      "stateMutability": "view",
      "type": "function"
    },
    {
      "constant": true,
      "inputs": [
        {
          "internalType": "uint256",
          "name": "",
          "type": "uint256"
        }
      ],
      "name": "receivingConsignmentBook",
      "outputs": [
        {
          "internalType": "uint256",
          "name": "consignmentnumber",
          "type": "uint256"
        },
        {
          "internalType": "uint256",
          "name": "consignmentOrderTime",
          "type": "uint256"
        },
        {
          "internalType": "uint256",
          "name": "consignmnetShippingTime",
          "type": "uint256"
        },
        {
          "internalType": "uint256",
          "name": "ETAasPerOrder",
          "type": "uint256"
        },
        {
          "internalType": "uint256",
          "name": "RobETA",
          "type": "uint256"
        },
        {
          "internalType": "uint256",
          "name": "SallyETA",
          "type": "uint256"
        },
        {
          "internalType": "address",
          "name": "consignmentSender",
          "type": "address"
        },
        {
          "internalType": "enum TradingAgreement.DeliveryStatus",
          "name": "DeliveryStatusOnDelivery",
          "type": "uint8"
        },
        {
          "internalType": "bool",
          "name": "flagDecision",
          "type": "bool"
        }
      ],
      "payable": false,
      "stateMutability": "view",
      "type": "function"
    },
    {
      "constant": true,
      "inputs": [],
      "name": "s",
      "outputs": [
        {
          "internalType": "uint256",
          "name": "",
          "type": "uint256"
        }
      ],
      "payable": false,
      "stateMutability": "view",
      "type": "function"
    },
    {
      "constant": true,
      "inputs": [],
      "name": "senderAddress",
      "outputs": [
        {
          "internalType": "address",
          "name": "",
          "type": "address"
        }
      ],
      "payable": false,
      "stateMutability": "view",
      "type": "function"
    },
    {
      "constant": true,
      "inputs": [],
      "name": "senderAgreement",
      "outputs": [
        {
          "internalType": "bool",
          "name": "",
          "type": "bool"
        }
      ],
      "payable": false,
      "stateMutability": "view",
      "type": "function"
    },
    {
      "constant": true,
      "inputs": [],
      "name": "senderCompanyName",
      "outputs": [
        {
          "internalType": "string",
          "name": "",
          "type": "string"
        }
      ],
      "payable": false,
      "stateMutability": "view",
      "type": "function"
    },
    {
      "constant": true,
      "inputs": [],
      "name": "timeProcessOrder",
      "outputs": [
        {
          "internalType": "uint256",
          "name": "",
          "type": "uint256"
        }
      ],
      "payable": false,
      "stateMutability": "view",
      "type": "function"
    },
    {
      "constant": true,
      "inputs": [
        {
          "internalType": "uint256",
          "name": "",
          "type": "uint256"
        },
        {
          "internalType": "uint256",
          "name": "",
          "type": "uint256"
        }
      ],
      "name": "timeSlotOrderPerSlot",
      "outputs": [
        {
          "internalType": "bool",
          "name": "",
          "type": "bool"
        }
      ],
      "payable": false,
      "stateMutability": "view",
      "type": "function"
    },
    {
      "constant": true,
      "inputs": [],
      "name": "time_slot",
      "outputs": [
        {
          "internalType": "uint256",
          "name": "",
          "type": "uint256"
        }
      ],
      "payable": false,
      "stateMutability": "view",
      "type": "function"
    },
    {
      "constant": true,
      "inputs": [],
      "name": "total_Slots",
      "outputs": [
        {
          "internalType": "uint256",
          "name": "",
          "type": "uint256"
        }
      ],
      "payable": false,
      "stateMutability": "view",
      "type": "function"
    },
    {
      "constant": false,
      "inputs": [
        {
          "internalType": "uint256",
          "name": "_timeSlotOrder",
          "type": "uint256"
        },
        {
          "internalType": "uint256",
          "name": "_timeOfOrder",
          "type": "uint256"
        },
        {
          "internalType": "uint256",
          "name": "_OrderETA",
          "type": "uint256"
        }
      ],
      "name": "orderConsignment",
      "outputs": [],
      "payable": false,
      "stateMutability": "nonpayable",
      "type": "function"
    },
    {
      "constant": false,
      "inputs": [
        {
          "internalType": "uint256",
          "name": "_cosignmentOrderNumber",
          "type": "uint256"
        },
        {
          "internalType": "bool",
          "name": "_acceptinOrder",
          "type": "bool"
        },
        {
          "internalType": "uint256",
          "name": "_eta",
          "type": "uint256"
        }
      ],
      "name": "receiverConsignement",
      "outputs": [],
      "payable": false,
      "stateMutability": "nonpayable",
      "type": "function"
    },
    {
      "constant": false,
      "inputs": [
        {
          "internalType": "uint256",
          "name": "_cosignmentOrderNumber",
          "type": "uint256"
        },
        {
          "internalType": "uint256",
          "name": "_eta",
          "type": "uint256"
        }
      ],
      "name": "senderETA",
      "outputs": [],
      "payable": false,
      "stateMutability": "nonpayable",
      "type": "function"
    },
    {
      "constant": false,
      "inputs": [
        {
          "internalType": "uint256",
          "name": "_cosignmentOrderNumber",
          "type": "uint256"
        }
      ],
      "name": "settingFlagDecision",
      "outputs": [],
      "payable": false,
      "stateMutability": "nonpayable",
      "type": "function"
    },
    {
      "constant": false,
      "inputs": [
        {
          "internalType": "uint256",
          "name": "_consignmentOrderNumber",
          "type": "uint256"
        }
      ],
      "name": "sallySignature",
      "outputs": [],
      "payable": false,
      "stateMutability": "nonpayable",
      "type": "function"
    },
    {
      "constant": false,
      "inputs": [
        {
          "internalType": "uint256",
          "name": "_consignmentOrderNumber",
          "type": "uint256"
        }
      ],
      "name": "RobSignature",
      "outputs": [],
      "payable": false,
      "stateMutability": "nonpayable",
      "type": "function"
    },
    {
      "constant": false,
      "inputs": [
        {
          "internalType": "uint256",
          "name": "_consignmentOrderNumber",
          "type": "uint256"
        },
        {
          "internalType": "bool",
          "name": "_statusResolved",
          "type": "bool"
        }
      ],
      "name": "resolveDispute",
      "outputs": [],
      "payable": false,
      "stateMutability": "nonpayable",
      "type": "function"
    },
    {
      "constant": true,
      "inputs": [],
      "name": "asserOrders",
      "outputs": [
        {
          "internalType": "bool",
          "name": "",
          "type": "bool"
        }
      ],
      "payable": false,
      "stateMutability": "view",
      "type": "function"
    },
    {
      "constant": true,
      "inputs": [
        {
          "internalType": "uint256",
          "name": "_enterPercent",
          "type": "uint256"
        }
      ],
      "name": "checkPerformance",
      "outputs": [
        {
          "internalType": "string",
          "name": "",
          "type": "string"
        }
      ],
      "payable": false,
      "stateMutability": "view",
      "type": "function"
    }
  ],
  "bytecode": "0x6080604052600a600d553480156200001657600080fd5b50604051620026aa380380620026aa833981810160405260608110156200003c57600080fd5b810190808051906020019092919080519060200190929190805190602001909291905050506040518060400160405280600d81526020017f526f62277320436f6d70616e790000000000000000000000000000000000000081525060009080519060200190620000ae92919062000216565b5033600160006101000a81548173ffffffffffffffffffffffffffffffffffffffff021916908373ffffffffffffffffffffffffffffffffffffffff1602179055506040518060400160405280600f81526020017f53616c6c79277320436f6d70616e790000000000000000000000000000000000815250600290805190602001906200013d92919062000216565b5082600360006101000a81548173ffffffffffffffffffffffffffffffffffffffff021916908373ffffffffffffffffffffffffffffffffffffffff160217905550600160048190555060006006819055508160078190555080600881905550600a80819055506002601081905550601054600b81905550600d546007546008540381620001c757fe5b0460105402600c81905550600a6009819055506002600e8190555060026005819055506062600f819055506001601660006101000a81548160ff021916908315150217905550505050620002c5565b828054600181600116156101000203166002900490600052602060002090601f016020900481019282601f106200025957805160ff19168380011785556200028a565b828001600101855582156200028a579182015b82811115620002895782518255916020019190600101906200026c565b5b5090506200029991906200029d565b5090565b620002c291905b80821115620002be576000816000905550600101620002a4565b5090565b90565b6123d580620002d56000396000f3fe608060405234801561001057600080fd5b506004361061021c5760003560e01c8063806ec72711610125578063d7002c15116100ad578063ef71166a1161007c578063ef71166a146108d3578063f1179f521461092b578063f1c718e814610949578063f2be851c14610967578063f8e4ceef146109895761021c565b8063d7002c1514610831578063d8ae35d11461084f578063db48b43614610893578063e6a7d217146108b15761021c565b8063924df30f116100f4578063924df30f1461075f578063a039fb7f1461077d578063ad961b3d146107c7578063c81cc514146107f5578063c9e525df146108135761021c565b8063806ec727146106e757806386b714e214610705578063880749e3146107235780638a054ac2146107415761021c565b80634312988b116101a857806353df38d41161017757806353df38d41461053357806355d441b51461056157806356a84047146105f657806364f4dd3b146106145780637a695318146106645761021c565b80634312988b1461041a578063493718d01461049d5780634ee128d0146104cb5780634fc84791146104e95761021c565b806331d31953116101ef57806331d319531461032657806334b25ee214610344578063388e3e5f1461037e5780633a317001146103a057806341f06c34146103e25761021c565b806313ac97f31461022157806321121cef1461024357806326121ff0146102ea5780632ac6806214610308575b600080fd5b610229610a41565b604051808215151515815260200191505060405180910390f35b61026f6004803603602081101561025957600080fd5b8101908080359060200190929190505050610a54565b6040518080602001828103825283818151815260200191508051906020019080838360005b838110156102af578082015181840152602081019050610294565b50505050905090810190601f1680156102dc5780820380516001836020036101000a031916815260200191505b509250505060405180910390f35b6102f2610b45565b6040518082815260200191505060405180910390f35b610310610b4b565b6040518082815260200191505060405180910390f35b61032e610b51565b6040518082815260200191505060405180910390f35b61037c6004803603604081101561035a57600080fd5b8101908080359060200190929190803515159060200190929190505050610b57565b005b610386610db5565b604051808215151515815260200191505060405180910390f35b6103e0600480360360608110156103b657600080fd5b81019080803590602001909291908035906020019092919080359060200190929190505050610dc8565b005b610418600480360360408110156103f857600080fd5b8101908080359060200190929190803590602001909291905050506112a3565b005b610422611424565b6040518080602001828103825283818151815260200191508051906020019080838360005b83811015610462578082015181840152602081019050610447565b50505050905090810190601f16801561048f5780820380516001836020036101000a031916815260200191505b509250505060405180910390f35b6104c9600480360360208110156104b357600080fd5b81019080803590602001909291905050506114c2565b005b6104d3611667565b6040518082815260200191505060405180910390f35b6104f161166d565b604051808273ffffffffffffffffffffffffffffffffffffffff1673ffffffffffffffffffffffffffffffffffffffff16815260200191505060405180910390f35b61055f6004803603602081101561054957600080fd5b8101908080359060200190929190505050611693565b005b61058d6004803603602081101561057757600080fd5b8101908080359060200190929190505050611838565b604051808781526020018681526020018581526020018473ffffffffffffffffffffffffffffffffffffffff1673ffffffffffffffffffffffffffffffffffffffff16815260200183815260200182151515158152602001965050505050505060405180910390f35b6105fe6118a1565b6040518082815260200191505060405180910390f35b61064a6004803603604081101561062a57600080fd5b8101908080359060200190929190803590602001909291905050506118a7565b604051808215151515815260200191505060405180910390f35b61066c6118e7565b6040518080602001828103825283818151815260200191508051906020019080838360005b838110156106ac578082015181840152602081019050610691565b50505050905090810190601f1680156106d95780820380516001836020036101000a031916815260200191505b509250505060405180910390f35b6106ef611985565b6040518082815260200191505060405180910390f35b61070d61198b565b6040518082815260200191505060405180910390f35b61072b611991565b6040518082815260200191505060405180910390f35b610749611997565b6040518082815260200191505060405180910390f35b61076761199d565b6040518082815260200191505060405180910390f35b6107856119a3565b604051808273ffffffffffffffffffffffffffffffffffffffff1673ffffffffffffffffffffffffffffffffffffffff16815260200191505060405180910390f35b6107f3600480360360208110156107dd57600080fd5b81019080803590602001909291905050506119c9565b005b6107fd611c61565b6040518082815260200191505060405180910390f35b61081b611c67565b6040518082815260200191505060405180910390f35b610839611c6d565b6040518082815260200191505060405180910390f35b6108916004803603606081101561086557600080fd5b810190808035906020019092919080351515906020019092919080359060200190929190505050611c73565b005b61089b6120c6565b6040518082815260200191505060405180910390f35b6108b96120cc565b604051808215151515815260200191505060405180910390f35b6108ff600480360360208110156108e957600080fd5b81019080803590602001909291905050506120df565b604051808481526020018315151515815260200182151515158152602001935050505060405180910390f35b610933612123565b6040518082815260200191505060405180910390f35b610951612129565b6040518082815260200191505060405180910390f35b61096f61212f565b604051808215151515815260200191505060405180910390f35b6109b56004803603602081101561099f57600080fd5b81019080803590602001909291905050506121c1565b604051808a81526020018981526020018881526020018781526020018681526020018581526020018473ffffffffffffffffffffffffffffffffffffffff1673ffffffffffffffffffffffffffffffffffffffff168152602001836003811115610a1b57fe5b60ff16815260200182151515158152602001995050505050505050505060405180910390f35b601660009054906101000a900460ff1681565b606060001515601660009054906101000a900460ff16151514610ac2576040517f08c379a00000000000000000000000000000000000000000000000000000000081526004018080602001828103825260298152602001806123786029913960400191505060405180910390fd5b60628210610b07576040518060400160405280600781526020017f53756363657373000000000000000000000000000000000000000000000000008152509050610b40565b6040518060400160405280600481526020017f4661696c0000000000000000000000000000000000000000000000000000000081525090505b919050565b60145481565b600a5481565b600b5481565b81600380811115610b6457fe5b6019600083815260200190815260200160002060060160149054906101000a900460ff166003811115610b9357fe5b14610c06576040517f08c379a00000000000000000000000000000000000000000000000000000000081526004018080602001828103825260158152602001807f412044495350555445206973207265717569726564000000000000000000000081525060200191505060405180910390fd5b60011515601a600085815260200190815260200160002060010160019054906101000a900460ff161515148015610c64575060011515601a600085815260200190815260200160002060010160009054906101000a900460ff161515145b610cd6576040517f08c379a00000000000000000000000000000000000000000000000000000000081526004018080602001828103825260118152602001807f426f74682073686f756c64207369676e2100000000000000000000000000000081525060200191505060405180910390fd5b600115158215151415610d3b5760016019600085815260200190815260200160002060060160146101000a81548160ff02191690836003811115610d1657fe5b0217905550610d2483612249565b601360008154809291906001019190505550610d9d565b600015158215151415610d9c5760026019600085815260200190815260200160002060060160146101000a81548160ff02191690836003811115610d7b57fe5b0217905550610d8983612249565b6014600081548092919060010191905055505b5b60156000815480929190600190039190505550505050565b600360149054906101000a900460ff1681565b3373ffffffffffffffffffffffffffffffffffffffff16600160009054906101000a900473ffffffffffffffffffffffffffffffffffffffff1673ffffffffffffffffffffffffffffffffffffffff1614610e8b576040517f08c379a00000000000000000000000000000000000000000000000000000000081526004018080602001828103825260138152602001807f4f6e6c7920526f622063616e204f72646572210000000000000000000000000081525060200191505060405180910390fd5b826000108015610e9d5750600a548311155b610f0f576040517f08c379a00000000000000000000000000000000000000000000000000000000081526004018080602001828103825260178152602001807f4e6f7420696e20746f74616c20736c6f742072616e676500000000000000000081525060200191505060405180910390fd5b6007548210158015610f265750600e546008540382105b610f7b576040517f08c379a000000000000000000000000000000000000000000000000000000000815260040180806020018281038252602481526020018061232e6024913960400191505060405180910390fd5b600e5482018111610ff4576040517f08c379a000000000000000000000000000000000000000000000000000000000815260040180806020018281038252601e8152602001807f53756368206f726465722063616e6e6f742062652070726f636573736564000081525060200191505060405180910390fd5b600c546011541061106d576040517f08c379a00000000000000000000000000000000000000000000000000000000081526004018080602001828103825260178152602001807f4d6178696d756d204f726465727320526561636865642100000000000000000081525060200191505060405180910390fd5b601160008154809291906001019190505550600c5460115414156110a7576000601660006101000a81548160ff0219169083151502179055505b601054601760008581526020019081526020016000208054905010611134576040517f08c379a00000000000000000000000000000000000000000000000000000000081526004018080602001828103825260158152602001807f54696d6520536c6f74206f72646572204d61786564000000000000000000000081525060200191505060405180910390fd5b601760008481526020019081526020016000206001908060018154018082558091505090600182039060005260206000209060209182820401919006909192909190916101000a81548160ff021916908315150217905550506040518060c001604052806011548152602001848152602001838152602001600360009054906101000a900473ffffffffffffffffffffffffffffffffffffffff1673ffffffffffffffffffffffffffffffffffffffff1681526020018281526020016000151581525060186000601154815260200190815260200160002060008201518160000155602082015181600101556040820151816002015560608201518160030160006101000a81548173ffffffffffffffffffffffffffffffffffffffff021916908373ffffffffffffffffffffffffffffffffffffffff1602179055506080820151816004015560a08201518160050160006101000a81548160ff021916908315150217905550905050505050565b3373ffffffffffffffffffffffffffffffffffffffff16600360009054906101000a900473ffffffffffffffffffffffffffffffffffffffff1673ffffffffffffffffffffffffffffffffffffffff1614611366576040517f08c379a00000000000000000000000000000000000000000000000000000000081526004018080602001828103825260168152602001807f4f6e6c792053616c6c792063616e20616363657373210000000000000000000081525060200191505060405180910390fd5b81600015156019600083815260200190815260200160002060060160159054906101000a900460ff16151514611404576040517f08c379a00000000000000000000000000000000000000000000000000000000081526004018080602001828103825260118152602001807f4465636973696f6e206973204d6164652100000000000000000000000000000081525060200191505060405180910390fd5b816019600085815260200190815260200160002060050181905550505050565b60028054600181600116156101000203166002900480601f0160208091040260200160405190810160405280929190818152602001828054600181600116156101000203166002900480156114ba5780601f1061148f576101008083540402835291602001916114ba565b820191906000526020600020905b81548152906001019060200180831161149d57829003601f168201915b505050505081565b806003808111156114cf57fe5b6019600083815260200190815260200160002060060160149054906101000a900460ff1660038111156114fe57fe5b14611571576040517f08c379a00000000000000000000000000000000000000000000000000000000081526004018080602001828103825260158152602001807f412044495350555445206973207265717569726564000000000000000000000081525060200191505060405180910390fd5b3373ffffffffffffffffffffffffffffffffffffffff16600160009054906101000a900473ffffffffffffffffffffffffffffffffffffffff1673ffffffffffffffffffffffffffffffffffffffff1614611634576040517f08c379a00000000000000000000000000000000000000000000000000000000081526004018080602001828103825260138152602001807f4f6e6c7920526f622063616e204f72646572210000000000000000000000000081525060200191505060405180910390fd5b6001601a600084815260200190815260200160002060010160016101000a81548160ff0219169083151502179055505050565b60105481565b600360009054906101000a900473ffffffffffffffffffffffffffffffffffffffff1681565b806003808111156116a057fe5b6019600083815260200190815260200160002060060160149054906101000a900460ff1660038111156116cf57fe5b14611742576040517f08c379a00000000000000000000000000000000000000000000000000000000081526004018080602001828103825260158152602001807f412044495350555445206973207265717569726564000000000000000000000081525060200191505060405180910390fd5b3373ffffffffffffffffffffffffffffffffffffffff16600360009054906101000a900473ffffffffffffffffffffffffffffffffffffffff1673ffffffffffffffffffffffffffffffffffffffff1614611805576040517f08c379a00000000000000000000000000000000000000000000000000000000081526004018080602001828103825260168152602001807f4f6e6c792053616c6c792063616e20616363657373210000000000000000000081525060200191505060405180910390fd5b6001601a600084815260200190815260200160002060010160006101000a81548160ff0219169083151502179055505050565b60186020528060005260406000206000915090508060000154908060010154908060020154908060030160009054906101000a900473ffffffffffffffffffffffffffffffffffffffff16908060040154908060050160009054906101000a900460ff16905086565b60115481565b601760205281600052604060002081815481106118c057fe5b9060005260206000209060209182820401919006915091509054906101000a900460ff1681565b60008054600181600116156101000203166002900480601f01602080910402602001604051908101604052809291908181526020018280546001816001161561010002031660029004801561197d5780601f106119525761010080835404028352916020019161197d565b820191906000526020600020905b81548152906001019060200180831161196057829003601f168201915b505050505081565b60055481565b60135481565b60065481565b60155481565b60095481565b600160009054906101000a900473ffffffffffffffffffffffffffffffffffffffff1681565b80600015156019600083815260200190815260200160002060060160159054906101000a900460ff16151514611a67576040517f08c379a00000000000000000000000000000000000000000000000000000000081526004018080602001828103825260118152602001807f4465636973696f6e206973204d6164652100000000000000000000000000000081525060200191505060405180910390fd5b6000601960008481526020019081526020016000206005015414158015611aa557506000601960008481526020019081526020016000206004015414155b611b17576040517f08c379a00000000000000000000000000000000000000000000000000000000081526004018080602001828103825260128152602001807f455441206e6f742064656c69766572656421000000000000000000000000000081525060200191505060405180910390fd5b600060016018600085815260200190815260200160002060040154019050600060016018600086815260200190815260200160002060040154039050600060196000868152602001908152602001600020600501549050600060196000878152602001908152602001600020600401549050818311158015611b995750838211155b8015611ba55750808311155b8015611bb15750838111155b15611c0e5760016019600088815260200190815260200160002060060160146101000a81548160ff02191690836003811115611be957fe5b0217905550611bf786612249565b601360008154809291906001019190505550611c59565b60036019600088815260200190815260200160002060060160146101000a81548160ff02191690836003811115611c4157fe5b02179055506015600081548092919060010191905055505b505050505050565b600e5481565b60125481565b600c5481565b3373ffffffffffffffffffffffffffffffffffffffff16600160009054906101000a900473ffffffffffffffffffffffffffffffffffffffff1673ffffffffffffffffffffffffffffffffffffffff1614611d36576040517f08c379a00000000000000000000000000000000000000000000000000000000081526004018080602001828103825260138152602001807f4f6e6c7920526f622063616e204f72646572210000000000000000000000000081525060200191505060405180910390fd5b82600015156019600083815260200190815260200160002060060160159054906101000a900460ff16151514611dd4576040517f08c379a00000000000000000000000000000000000000000000000000000000081526004018080602001828103825260118152602001807f4465636973696f6e206973204d6164652100000000000000000000000000000081525060200191505060405180910390fd5b60001515601660019054906101000a900460ff16151514611e5d576040517f08c379a00000000000000000000000000000000000000000000000000000000081526004018080602001828103825260178152602001807f416c6c2064656c6976657269657320526563656976656400000000000000000081525060200191505060405180910390fd5b60006003811115611e6a57fe5b6019600086815260200190815260200160002060060160149054906101000a900460ff166003811115611e9957fe5b14611f0c576040517f08c379a000000000000000000000000000000000000000000000000000000000815260040180806020018281038252601f8152602001807f54686520737461747573206f6e2044656c69766572792069732066696e616c0081525060200191505060405180910390fd5b600060186000868152602001908152602001600020600001541415611f99576040517f08c379a00000000000000000000000000000000000000000000000000000000081526004018080602001828103825260118152602001807f44656c697665727920697320656d70747900000000000000000000000000000081525060200191505060405180910390fd5b8360196000868152602001908152602001600020600001819055506018600085815260200190815260200160002060040154601960008681526020019081526020016000206003018190555060011515831515141561201b578160196000868152602001908152602001600020600401819055506120168461227b565b612086565b6000151583151514156120855760026019600086815260200190815260200160002060060160146101000a81548160ff0219169083600381111561205b57fe5b02179055506120698461227b565b61207284612249565b6014600081548092919060010191905055505b5b601260008154809291906001019190505550600c5460125414156120c0576001601660016101000a81548160ff0219169083151502179055505b50505050565b60075481565b601660019054906101000a900460ff1681565b601a6020528060005260406000206000915090508060000154908060010160009054906101000a900460ff16908060010160019054906101000a900460ff16905083565b600d5481565b60085481565b6000801515601660009054906101000a900460ff1615151461219c576040517f08c379a00000000000000000000000000000000000000000000000000000000081526004018080602001828103825260298152602001806123786029913960400191505060405180910390fd5b601454601554601354010160115414156121b957600190506121be565b600090505b90565b60196020528060005260406000206000915090508060000154908060010154908060020154908060030154908060040154908060050154908060060160009054906101000a900473ffffffffffffffffffffffffffffffffffffffff16908060060160149054906101000a900460ff16908060060160159054906101000a900460ff16905089565b60016019600083815260200190815260200160002060060160156101000a81548160ff02191690831515021790555050565b600015156018600083815260200190815260200160002060050160009054906101000a900460ff161515146122fb576040517f08c379a00000000000000000000000000000000000000000000000000000000081526004018080602001828103825260268152602001806123526026913960400191505060405180910390fd5b60016018600083815260200190815260200160002060050160006101000a81548160ff0219169083151502179055505056fe546865206f726465722073686f756c642062652077697468696e207468652072616e676554686973206f726465722068617320616c7265616479206265696e67206d6f6469666965642143616e6e6f7420636865636b206265636175736520666c6167436f6e74696e75652069732074727565a265627a7a72315820fefe6f81bd530d7baa916edaec158897a627d228ffe5f949223d70db0c6e78d264736f6c63430005100032",
  "source": "pragma solidity <0.6.5;\n\ncontract TradingAgreement{\n\n    // Receiveing Company Information\n    string public ownerCompanyName;\n    address public ownerReceiver;\n\n    // Sender Company Information\n    string public senderCompanyName;\n    address public senderAddress;\n\n    bool public senderAgreement; // flagSign will be set true\n\n    // Consignment count, it will always start from 1, because initialization is always zero\n    uint countOfShipper;\n\n    // ETA of Consignment\n    uint public consignmentETARange;\n\n    // contract's TimeInformation;\n    uint public T_Deployment;\n    uint public T_start;\n    uint public T_end;\n    uint public T_agreement;\n    uint public total_Slots;\n\n    // Contract Consignment Order;\n    uint public N_min;\n    uint public N_max;\n\n    // T, i.e. time slot\n    uint public time_slot = 10;\n\n    // Time to process the order\n    uint public timeProcessOrder;\n\n    // Rate of success\n    uint rate_of_success;\n\n    // N, i.e.n number of allowed orders within time_slot.\n    uint public orderPerSlot;\n\n    // initialzing, performance variable;\n    uint public OrderBookIncrementor; // this is sepatate and will increment sepatately\n    uint public N;\n    uint public s;\n    uint public f;\n    uint public d;\n    bool public flagContinue;\n    bool public ContractEndAgreement; //default false\n\n    constructor(address _senderAddress, uint _startTime, uint _endTime) public {\n        // For the moment, the following information is hardcoded.\n\n        // Predeclaring information for Rob, The Receiver\n        ownerCompanyName = \"Rob's Company\";\n        ownerReceiver = msg.sender;\n\n        // Predeclaring information for Sally, The Sender\n        senderCompanyName = \"Sally's Company\";\n        senderAddress = _senderAddress;\n\n        // initiallizing shipping counter.\n        countOfShipper = 1; // Start from 0....\n\n        // Contract Information Timeline\n        T_Deployment = 0;\n        T_start = _startTime \t; // Later: 1577858400, Wed Jan 01 2020 09:00:00 GMT+0300 (Moscow Standard Time)\n        T_end = _endTime; // Later: 1609426800, Thu Dec 31 2020 18:00:00 GMT+0300 (Moscow Standard Time)\n\n        total_Slots = 10;\n\n        orderPerSlot = 2;\n        N_min = orderPerSlot;\n        N_max = orderPerSlot * ((T_end-T_start)/time_slot);\n\n\n        // agreement time is 2 days\n        T_agreement = 10; // Later: 172800\n\n        // We are assuming that time to process each order will be fixed time, lets say 2 days, i.e. 172800 seconds is the ETA and this will have  10% margin, therefore:= 4,8 hours\n        timeProcessOrder = 2; //later: 2 days for now 2 sec.\n        consignmentETARange = 2; // 2 days (inluding)\n\n        // Rate of success\n        rate_of_success = 98; // % of rate of success\n\n        flagContinue = true;\n    }\n\n    mapping(uint => bool[]) public timeSlotOrderPerSlot;\n\n    struct orderBook{\n\n        uint consignmentnumber;\n\n        uint timeSlotOfOrder;\n        uint timeOfOrder;\n\n        address consignmentSender;\n        uint ETA;\n        bool DeliveryReviewed;\n    }\n\n\n    mapping(uint => orderBook) public orderBookConsignment;\n\n    enum DeliveryStatus {NONE, SUCCESS, FAILED, DISPUTE}\n\n    struct deliveryConsignmentInformation{\n        uint consignmentnumber;\n        uint consignmentOrderTime;\n        uint consignmnetShippingTime; // this should be 24 hrs plus, i.e it is T_processing\n\n        uint ETAasPerOrder; //This is time which should be within that week\n        uint RobETA;\n        uint SallyETA;\n\n        address consignmentSender;\n\n        DeliveryStatus DeliveryStatusOnDelivery;\n        bool flagDecision;\n    }\n\n    mapping(uint => deliveryConsignmentInformation) public receivingConsignmentBook;\n\n    function orderConsignment(uint _timeSlotOrder, uint _timeOfOrder,uint _OrderETA) public onlyOwner{ //Question do we need to iterate sequestion for making orders or random is possible\n        // TimeSlot should be in range\n        require(0<_timeSlotOrder && _timeSlotOrder<=total_Slots,'Not in total slot range');\n\n        //Order Shouldbe Withing the range.\n        require(_timeOfOrder>=T_start && _timeOfOrder<T_end - timeProcessOrder,\"The order should be within the range\");\n\n        // ETA > _timeOfOrder + timeProcessOrder\n        require(_OrderETA > _timeOfOrder + timeProcessOrder, \"Such order cannot be processed\");\n\n        //Order Should be Withing the range.\n        require(OrderBookIncrementor<N_max,'Maximum Orders Reached!');\n        OrderBookIncrementor++;\n        if(OrderBookIncrementor==N_max){\n            flagContinue = false;\n        }\n\n        require(timeSlotOrderPerSlot[_timeSlotOrder].length < orderPerSlot,\"Time Slot order Maxed\");\n        timeSlotOrderPerSlot[_timeSlotOrder].push(true);\n        orderBookConsignment[OrderBookIncrementor] = orderBook(OrderBookIncrementor,_timeSlotOrder,_timeOfOrder,senderAddress,_OrderETA,false);\n    }\n\n    // Some non repetative internal functions\n    function _completeOrderReview(uint _orderNumber) private{\n        require(orderBookConsignment[_orderNumber].DeliveryReviewed == false, 'This order has already being modified!');\n        orderBookConsignment[_orderNumber].DeliveryReviewed = true;\n    }\n\n    function _settingFlag(uint _cosignmentOrderNumber) private {\n        receivingConsignmentBook[_cosignmentOrderNumber].flagDecision = true;\n    }\n\n    function receiverConsignement(uint _cosignmentOrderNumber, bool _acceptinOrder, uint _eta) public onlyOwner noDecision(_cosignmentOrderNumber){\n        // require that status of the DeliveryStatusOnDelivery = 0, i.e. enum status = NONE\n        require(ContractEndAgreement == false, \"All deliveries Received\");\n        require(receivingConsignmentBook[_cosignmentOrderNumber].DeliveryStatusOnDelivery == DeliveryStatus.NONE,\"The status on Delivery is final\");\n\n        //Delivery order should not be empty\n        require(orderBookConsignment[_cosignmentOrderNumber].consignmentnumber !=0, 'Delivery is empty');\n\n        receivingConsignmentBook[_cosignmentOrderNumber].consignmentnumber = _cosignmentOrderNumber;\n\n        // ETA as per order\n        receivingConsignmentBook[_cosignmentOrderNumber].ETAasPerOrder =  orderBookConsignment[_cosignmentOrderNumber].ETA;\n\n        if (_acceptinOrder == true){\n            receivingConsignmentBook[_cosignmentOrderNumber].RobETA = _eta;\n            _completeOrderReview(_cosignmentOrderNumber);\n        }\n\n        else if(_acceptinOrder == false){\n            receivingConsignmentBook[_cosignmentOrderNumber].DeliveryStatusOnDelivery = DeliveryStatus.FAILED;\n            _completeOrderReview(_cosignmentOrderNumber);\n            _settingFlag(_cosignmentOrderNumber);\n            f++;\n        }\n        N++;\n        if(N == N_max){\n            ContractEndAgreement = true;\n        }\n    }\n\n    // initiallizing Sally and Rob Details\n    function senderETA(uint _cosignmentOrderNumber, uint _eta) public onlySender noDecision(_cosignmentOrderNumber){\n        receivingConsignmentBook[_cosignmentOrderNumber].SallyETA = _eta;\n    }\n\n    // setting flagDecision\n    function settingFlagDecision(uint _cosignmentOrderNumber) public noDecision(_cosignmentOrderNumber){\n        // checking that it should either be failed transaction or ETAs not empty\n        require(receivingConsignmentBook[_cosignmentOrderNumber].SallyETA != 0 && receivingConsignmentBook[_cosignmentOrderNumber].RobETA !=0,\"ETA not delivered!\");\n\n        uint _etaUp = orderBookConsignment[_cosignmentOrderNumber].ETA + 1;\n        uint _etaLow = orderBookConsignment[_cosignmentOrderNumber].ETA - 1;\n\n        uint _etaSally = receivingConsignmentBook[_cosignmentOrderNumber].SallyETA;\n        uint _etaRob = receivingConsignmentBook[_cosignmentOrderNumber].RobETA;\n\n        /* checking the range:\n        _etaLow <= (etaSally and etaRob) <= _etaUp\n        */\n        if(_etaLow <= _etaSally && _etaSally <= _etaUp && _etaLow <= _etaRob && _etaRob <=_etaUp){\n            // setting flag to Success\n            receivingConsignmentBook[_cosignmentOrderNumber].DeliveryStatusOnDelivery = DeliveryStatus.SUCCESS;\n            _settingFlag(_cosignmentOrderNumber);\n            s++;\n        }\n\n        else{\n            receivingConsignmentBook[_cosignmentOrderNumber].DeliveryStatusOnDelivery = DeliveryStatus.DISPUTE;\n            d++;\n        }\n    }\n\n\n    // NOW we want to resolve the dispuite\n    struct multiSig{\n        uint courierNumber;\n        bool signatureSally;\n        bool signatureRob;\n    }\n\n    mapping(uint => multiSig) public multiSigBook;\n\n    function sallySignature(uint _consignmentOrderNumber) public disputed(_consignmentOrderNumber) onlySender{\n        multiSigBook[_consignmentOrderNumber].signatureSally = true;\n    }\n\n    function RobSignature(uint _consignmentOrderNumber) public disputed(_consignmentOrderNumber) onlyOwner{\n        multiSigBook[_consignmentOrderNumber].signatureRob = true;\n    }\n\n    function resolveDispute(uint _consignmentOrderNumber,bool _statusResolved) public disputed(_consignmentOrderNumber){\n        // signatures should not be empty\n        require(multiSigBook[_consignmentOrderNumber].signatureRob == true && multiSigBook[_consignmentOrderNumber].signatureSally == true, 'Both should sign!');\n        // It is success\n        if(_statusResolved == true){\n            receivingConsignmentBook[_consignmentOrderNumber].DeliveryStatusOnDelivery = DeliveryStatus.SUCCESS;\n            _settingFlag(_consignmentOrderNumber);\n            s++;\n        }\n\n        else if(_statusResolved == false){\n            receivingConsignmentBook[_consignmentOrderNumber].DeliveryStatusOnDelivery = DeliveryStatus.FAILED;\n            _settingFlag(_consignmentOrderNumber);\n            f++;\n        }\n        d--;\n    }\n\n    function asserOrders() public view flagFalse returns(bool){\n        if (OrderBookIncrementor == s + d + f){\n            return true;\n        }\n        else{\n            return false;\n        }\n    }\n\n\n\n    function checkPerformance(uint _enterPercent) public view flagFalse returns(string memory){\n\n\n        if(_enterPercent >= 98){\n            return \"Success\";\n        }\n\n        else{\n            return \"Fail\";\n        }\n    }\n\n    modifier onlyOwner(){\n        require(ownerReceiver == msg.sender,\"Only Rob can Order!\");\n        _;\n    }\n\n    modifier onlySender(){\n        require(senderAddress == msg.sender,\"Only Sally can access!\");\n        _;\n    }\n\n    modifier flagFalse(){\n        require(flagContinue == false,\"Cannot check because flagContinue is true\");\n        _;\n    }\n\n    modifier onlyTansactingParties(){\n        require(ownerReceiver == msg.sender || senderAddress == msg.sender, \"Either Sally or Rob should audit\");\n        _;\n    }\n\n    modifier noDecision(uint _consignmentOrderNumber){\n        require(receivingConsignmentBook[_consignmentOrderNumber].flagDecision == false,\"Decision is Made!\");\n        _;\n    }\n\n    modifier disputed(uint _consignmentOrderNumber){\n        require(receivingConsignmentBook[_consignmentOrderNumber].DeliveryStatusOnDelivery == DeliveryStatus.DISPUTE,\"A DISPUTE is required\");\n        _;\n    }\n\n\n}\n",
  "sourcePath": "/Users/yashmadhwal/Documents/Yash Madhwal/Ongoing (Reseach)/Proof_of_Delivery/PoD_ETA/SupplyChainPerformance /contracts/TradingAgreement.sol",
  "compiler": {
    "name": "solc",
    "version": "0.5.16+commit.9c3226ce.Emscripten.clang"
  },
  "schemaVersion": "3.3.4",
  "updatedAt": "2021-07-14T10:48:10.238Z",
  "networkType": "ethereum",
  "devdoc": {
    "methods": {}
  },
  "userdoc": {
    "methods": {}
  }
}